:100000000C94B8020C94EF020C9415030C94CA02E1
:100010000C94CA020C94CA020C94CA020C94CA0230
:100020000C94CA020C94CA020C94CA020C94CA0220
:100030000C94CA020C94CA020C94CA020C94CA0210
:100040000C94CA020C94CA020C94CA020C94CA0200
:100050000C94CA020C94CA020C94CA020C94CA02F0
:100060000C94CA020C94CA02ECE8ED00EEE1F00038
:100070007F7F007F7F000000000080808080800103
:1000800001010101151F151F1500000000000000EF
:100090000000000000000000000000000000000060
:1000A0000000000000000000000000000000000050
:1000B0000000000000000000000000000000000040
:1000C0000000000000000000000000000000000030
:1000D0000000000000000000000000000000000020
:1000E0000000000000000000000000000000000010
:1000F0000000000000000000000000000000000000
:1001000000000000000000000000000000000000EF
:10011000000000000000065F06000703000703243C
:100120007E247E24242B6A120063130864633649FC
:100130005620500007030000003E41000000413EF1
:100140000000083E1C3E0808083E080800E0600069
:100150000008080808080060600000201008040279
:100160003E4141413E00427F4000625149494622A2
:10017000494949361814127F102F494949313C4AE0
:10018000494930017109050336494949360649494B
:10019000291E006C6C000000EC6C00000814224169
:1001A00000242424242400412214080201590906B1
:1001B0003E415D551E7E1111117E7F494949363EF3
:1001C000414141227F4141413E7F494949417F09A7
:1001D0000909013E4149497A7F0808087F00417FAB
:1001E0004100304040403F7F081422417F40404062
:1001F000407F0204027F7F0204087F3E4141413E6E
:100200007F090909063E4151215E7F0909196626C9
:100210004949493201017F01013F4040403F1F20D1
:1002200040201F3F403C403F6314081463070870A0
:1002300008077149454300007F414100020408104E
:10024000200041417F000402010204808080808000
:10025000000307000020545454787F444444383845
:1002600044444428384444447F3854545408087E55
:1002700009090018A4A4A47C7F0404780000007D70
:1002800040004080847D007F1028440000007F40B3
:10029000007C041804787C04047800384444443812
:1002A000FC4444443838444444FC4478440408083A
:1002B00054545420043E4424003C40207C001C2024
:1002C00040201C3C6030603C6C10106C009CA060B6
:1002D0003C006454544C00083E414100000077004B
:1002E000000041413E080201020100000000000040
:1002F00000000000000000000000000000000000FE
:1003000000000000000000000000000000000000ED
:1003100000000000000000000000000000000000DD
:1003200000000000000000000000000000000000CD
:1003300000000000000000000000000000000000BD
:1003400000000000000000000000000000000000AD
:10035000000000000000000000000000000000009D
:10036000000000000000000000000000000000008D
:10037000000000000000000000000000000000007D
:10038000000000000000000000000000000000006D
:10039000000000000000000000000000000000005D
:1003A000000000000000000000000000000000004D
:1003B000000000000000000000000000000000003D
:1003C000000000000000000000000000000000002D
:1003D000000000000000000000000000000000001D
:1003E000000000000000000000000000000000000D
:1003F00000000000000000000000000000000000FD
:1004000000000000000000000000000000000000EC
:1004100000000000000000000000000000000000DC
:1004200000000000000000000000000000000000CC
:100430007E1111117E7F494949317F494949367FF3
:1004400001010101C07E417FC07F494949417708D0
:100450007F087722494949367F2010087F7E211185
:10046000097E7F08142241407E01017F7F02040241
:100470007F7F0808087F3E4141413E7F0101017FA7
:100480007F090909063E4141412201017F010127FF
:100490004848483F0E117F110E63140814637F40D3
:1004A000407FC0070808087F7F407F407F7F407FF4
:1004B00040FF03017F48307F4848307F7F484848ED
:1004C00030224149493E7F083E413E661909097F75
:1004D00020545454783C4A4A4A317C545454287C21
:1004E00004040C007844447CC038545454086C1004
:1004F0007C106C28445454287C2010087C7C2012EA
:100500000A7C7C10284400403804047C7C081008D5
:100510007C7C1010107C38444444387C0404047CF7
:10052000FC44444438384444442804047C04049C77
:10053000A0603C0018247C24186C10106C007C40D7
:10054000407CC00C1010107C7C407C407C7C407C4B
:1005500040FC0C047C50207C5050207C7C5050503F
:100560002028445454387C10384438483414147CBF
:1005700011241FBECFEFD8E0DEBFCDBF11E0A0E059
:10058000B1E001C01D92AC30B107E1F70E94C70392
:100590000C942C050C940000F8948AB1837E8AB9DF
:1005A0008BB1837E8BB98AE08093690083E08DBB39
:1005B00081E08093070180E091E0909306018093B1
:1005C0000501A8952FE088E190E00FB6F894A89572
:1005D000809360000FBE20936000789408951F926E
:1005E0000F920FB60F9211248F939F93F8948091DE
:1005F000040180958093040180910401882319F0FF
:1006000082E091E002C080E091E090930601809347
:10061000050181E080930701A89578949F918F91BF
:100620000F900FBE0F901F9018951F920F920FB64C
:100630000F9211248F939F93EF93FF93F89489B1B6
:1006400082958F70E0910501F091060180FF04C052
:1006500080819181019703C080819181019691836E
:100660008083A89581E0809307017894FF91EF91B2
:100670009F918F910F900FBE0F901F9018951F9311
:10068000182F80E064E00E942E04112311F08FE403
:1006900001C084E50E9477041F9108958BE062E019
:1006A0000E942E0481E40E94770408950F931F9303
:1006B0008C0160E177E20E941805862F805D0E9420
:1006C0007704C80160E177E20E941805182F092F0E
:1006D00068EE73E00E941805862F805D0E94770403
:1006E000812F902F68EE73E00E941805182F092FB4
:1006F00064E670E00E941805862F805D0E947704F2
:10070000812F902F64E670E00E941805182F092FA2
:100710006AE070E00E941805862F805D0E947704D1
:10072000812F902F6AE070E00E941805805D0E9482
:1007300077041F910F9108950F931F938C0180E010
:1007400062E00E942E04C8010E9456031F910F917F
:1007500008950F931F938C0180E060E00E942E04A7
:10076000C8010E9456031F910F9108958BE060E02D
:100770000E942E048CE690E00E9454048BE061E01D
:100780000E942E0488E690E00E9454040895CF93BE
:10079000DF930E94CC020E94E604C0EADFE0809171
:1007A00007018823C1F0109207010E94040580917F
:1007B0000001909101010E94A9030E94B60380915B
:1007C0000201909103010E949C030E944E038091BC
:1007D00004010E943F03CE010197F1F7A895DFCFF6
:1007E00098E087FF02C02A9A01C02A982B982B9A7A
:1007F000A895915011F0880FF4CF089529980E9480
:10080000F0030895299A0E94F00380910A018F5FF6
:1008100080930A0180910A01843540F010920A0108
:1008200080910B018F5F80930B01A89508951F9312
:10083000663008F065E0182F843508F013E5A895B8
:1008400010930A0160930B01862F80640E94FE03BF
:10085000812F80680E94FE031F910895982F990FA1
:10086000980F892F880F0E94170408951F93CF9324
:10087000DF9390E0EC01CC0FDD1FCC0FDD1FC80F24
:10088000D91FC059DF4F15E0FE0184910E94020478
:10089000A895115021961123B9F780E00E94020417
:1008A000DF91CF911F910895CF93DF93EC0103C0A7
:1008B0000E943604A895FE01219684918823C1F7F1
:1008C000DF91CF9108951F9380FD02C010E001C019
:1008D00013E081FD1C6082FD106383FD106C812F8D
:1008E0000E940204812F0E9402041F910895CF925A
:1008F000DF92FF920F931F93CF93DF9390E08C01D1
:10090000000F111F000F111F080F191F40E7C42E01
:1009100040E0D42EC00ED11EE60135E0F32EFE01DC
:1009200084910E946304A895FA942196FF20B9F758
:10093000E801259680E00E94020480E00E94020403
:1009400080910A0160910B016F5F8C500E94170427
:10095000C059DF4FF601849182958F700E94630425
:10096000A8950894C11CD11CCC16DD0699F780E02F
:100970000E94020480E00E94020480910A016091BA
:100980000B0161500E941704DF91CF911F910F91CD
:10099000FF90DF90CF9008951F93182F8093080148
:1009A00081E20E94FE03812F80680E94FE0380E2A4
:1009B0000E94FE031F91089580930901882311F07E
:1009C0008DE001C08CE00E94FE030895A89585B1DA
:1009D0008F6085B984B18F6084B9289800000000C9
:1009E00000000000289A81E20E94FE0386E00E9437
:1009F000FE0387E10E94FE0384E10E94CC0480E0B4
:100A00000E94DC04A89508951F9380E060E00E9496
:100A10002E041CEF80E00E94020480E00E94020489
:100A20001150C1F780E060E00E942E041F910895EC
:100A3000AA1BBB1B51E107C0AA1FBB1FA617B70704
:100A400010F0A61BB70B881F991F5A95A9F7809520
:0C0A50009095BC01CD010895F894FFCFF3
:00000001FF
